{
  "contractName": "Auction",
  "abi": [
    {
      "inputs": [],
      "stateMutability": "nonpayable",
      "type": "constructor"
    },
    {
      "inputs": [],
      "name": "highestBid",
      "outputs": [
        {
          "internalType": "uint256",
          "name": "",
          "type": "uint256"
        }
      ],
      "stateMutability": "view",
      "type": "function",
      "constant": true
    },
    {
      "inputs": [],
      "name": "highestBidder",
      "outputs": [
        {
          "internalType": "address",
          "name": "",
          "type": "address"
        }
      ],
      "stateMutability": "view",
      "type": "function",
      "constant": true
    },
    {
      "inputs": [
        {
          "internalType": "address",
          "name": "",
          "type": "address"
        }
      ],
      "name": "userBalances",
      "outputs": [
        {
          "internalType": "uint256",
          "name": "",
          "type": "uint256"
        }
      ],
      "stateMutability": "view",
      "type": "function",
      "constant": true
    },
    {
      "inputs": [],
      "name": "bid",
      "outputs": [],
      "stateMutability": "payable",
      "type": "function",
      "payable": true
    },
    {
      "inputs": [],
      "name": "withdraw",
      "outputs": [],
      "stateMutability": "nonpayable",
      "type": "function"
    },
    {
      "inputs": [
        {
          "internalType": "address",
          "name": "_addr",
          "type": "address"
        }
      ],
      "name": "amountCheck",
      "outputs": [
        {
          "internalType": "bool",
          "name": "",
          "type": "bool"
        }
      ],
      "stateMutability": "view",
      "type": "function",
      "constant": true
    },
    {
      "inputs": [],
      "name": "getContractBalance",
      "outputs": [
        {
          "internalType": "uint256",
          "name": "",
          "type": "uint256"
        }
      ],
      "stateMutability": "view",
      "type": "function",
      "constant": true
    }
  ],
  "bytecode": "0x608060405234801561001057600080fd5b50336000806101000a81548173ffffffffffffffffffffffffffffffffffffffff021916908373ffffffffffffffffffffffffffffffffffffffff160217905550600060018190555033600360006101000a81548173ffffffffffffffffffffffffffffffffffffffff021916908373ffffffffffffffffffffffffffffffffffffffff16021790555061073f806100a96000396000f3fe6080604052600436106100705760003560e01c8063537eeb511161004e578063537eeb51146100d35780636f9fb98a1461011057806391f901571461013b578063d57bde791461016657610070565b80631998aeef1461007557806326224c641461007f5780633ccfd60b146100bc575b600080fd5b61007d610191565b005b34801561008b57600080fd5b506100a660048036038101906100a19190610488565b610285565b6040516100b391906105dd565b60405180910390f35b3480156100c857600080fd5b506100d161029d565b005b3480156100df57600080fd5b506100fa60048036038101906100f59190610488565b6103e5565b6040516101079190610562565b60405180910390f35b34801561011c57600080fd5b50610125610441565b60405161013291906105dd565b60405180910390f35b34801561014757600080fd5b50610150610449565b60405161015d9190610547565b60405180910390f35b34801561017257600080fd5b5061017b61046d565b60405161018891906105dd565b60405180910390f35b60015434116101d5576040517f08c379a00000000000000000000000000000000000000000000000000000000081526004016101cc9061059d565b60405180910390fd5b600154600260008060009054906101000a900473ffffffffffffffffffffffffffffffffffffffff1673ffffffffffffffffffffffffffffffffffffffff1673ffffffffffffffffffffffffffffffffffffffff16815260200190815260200160002081905550336000806101000a81548173ffffffffffffffffffffffffffffffffffffffff021916908373ffffffffffffffffffffffffffffffffffffffff16021790555034600181905550565b60026020528060005260406000206000915090505481565b60003390506102ab816103e5565b6102ea576040517f08c379a00000000000000000000000000000000000000000000000000000000081526004016102e19061057d565b60405180910390fd5b8073ffffffffffffffffffffffffffffffffffffffff166108fc600260008473ffffffffffffffffffffffffffffffffffffffff1673ffffffffffffffffffffffffffffffffffffffff168152602001908152602001600020549081150290604051600060405180830381858888f1935050505061039d576040517f08c379a0000000000000000000000000000000000000000000000000000000008152600401610394906105bd565b60405180910390fd5b6000600260008373ffffffffffffffffffffffffffffffffffffffff1673ffffffffffffffffffffffffffffffffffffffff1681526020019081526020016000208190555050565b600080600260008473ffffffffffffffffffffffffffffffffffffffff1673ffffffffffffffffffffffffffffffffffffffff168152602001908152602001600020541115610437576001905061043c565b600090505b919050565b600047905090565b60008054906101000a900473ffffffffffffffffffffffffffffffffffffffff1681565b60015481565b600081359050610482816106f2565b92915050565b60006020828403121561049a57600080fd5b60006104a884828501610473565b91505092915050565b6104ba81610609565b82525050565b6104c98161061b565b82525050565b60006104dc6032836105f8565b91506104e782610651565b604082019050919050565b60006104ff601e836105f8565b915061050a826106a0565b602082019050919050565b6000610522600b836105f8565b915061052d826106c9565b602082019050919050565b61054181610647565b82525050565b600060208201905061055c60008301846104b1565b92915050565b600060208201905061057760008301846104c0565b92915050565b60006020820190508181036000830152610596816104cf565b9050919050565b600060208201905081810360008301526105b6816104f2565b9050919050565b600060208201905081810360008301526105d681610515565b9050919050565b60006020820190506105f26000830184610538565b92915050565b600082825260208201905092915050565b600061061482610627565b9050919050565b60008115159050919050565b600073ffffffffffffffffffffffffffffffffffffffff82169050919050565b6000819050919050565b7f54686520616d6f756e7420746f2077697468647261772073686f756c6420626560008201527f2067726561746572207468616e207a65726f0000000000000000000000000000602082015250565b7f546865726520616c7265616479206973206120686967686572206269642e0000600082015250565b7f43616e6e6f742073656e74000000000000000000000000000000000000000000600082015250565b6106fb81610609565b811461070657600080fd5b5056fea2646970667358221220cc610028fcba255bcf3ecb65f4ac8c59db4bc7b6b96dded949203729e4ac500e64736f6c63430008030033",
  "immutableReferences": {},
  "source": "//SPDX-License-Identifier: GPL-3.0\npragma solidity >= 0.8.0 <= 0.8.3;\n\n\n  contract Auction{\n    \n    address public highestBidder; \n    uint public highestBid; \n    mapping(address => uint) public userBalances; \n    address owner;\n    \n    \n    // contractor \n    // 1. Initialize highest bid and the bidder's address\n    constructor() {\n        highestBidder = msg.sender;\n        highestBid = 0;\n        owner = msg.sender;\n    }\n    \n    // Function to process bid\n    // 1. Check if the bid is greater than the current highest bid26\n    // 2. Update status variable and the amount to return\n    function bid() public payable {\n        require(msg.value > highestBid,\"There already is a higher bid.\");\n        userBalances[highestBidder] = highestBid;\n        highestBidder = msg.sender;\n        highestBid = msg.value;\n    }\n    \n    \n     function withdraw() public {\n        address payable msgSender = payable(msg.sender);\n        require( amountCheck(msgSender),\"The amount to withdraw should be greater than zero\");\n        require( msgSender.send(userBalances[msgSender]), \"Cannot sent\");\n        userBalances[msgSender] = 0;\n    }\n    \n    function amountCheck(address _addr) public view returns(bool){\n        if(userBalances[_addr] > 0)\n            return true;\n        return false;\n    } \n    function getContractBalance() public view returns(uint){\n        \n        return(address(this).balance);\n    }\n}\n",
  "sourcePath": "/home/nikos/solidity/dapp/contracts/Auction.sol",
  "compiler": {
    "name": "solc",
    "version": "0.8.3+commit.8d00100c.Emscripten.clang"
  },
  "schemaVersion": "3.4.1",
  "updatedAt": "2021-05-22T19:37:07.114Z",
  "networkType": "ethereum",
  "devdoc": {
    "kind": "dev",
    "methods": {},
    "version": 1
  },
  "userdoc": {
    "kind": "user",
    "methods": {},
    "version": 1
  }
}